:100000000C94E4030C942B040C942B040C942B04FC
:100010000C942B040C942B040C942B040C942B04A4
:100020000C942B040C942B040C9407230C94DB23CA
:100030000C94CF160C942B040C942B040C942B04CE
:100040000C942B040C942B040C942B040C942B0474
:100050000C942B040C9426170C942B040C942B0456
:100060000C942B040C942B040C942B040C942B0454
:100070000C942B040C942B040C942B040C942B0444
:100080000C942B040C942B040C942B040C942B0434
:100090000C942B040C942B040C942B040C942B0424
:1000A0000C942B040C942B040C942B04100034009F
:1000B0000C001C0004000A0028002C00000044452D
:1000C0004255473A2064697361626C65642E0A0088
:1000D00044454255473A20656E61626C65642E0A5C
:1000E000000A0025303862003A20002530325800DE
:1000F0000A722F632030313233343536370A000A22
:10010000002530325820006B6579626F6172645F40
:100110007265706F72743A20000A00253032580000
:100120006B6579626F6172645F7365745F6C65643F
:100130003A20003F00433E20004C25640A007469C9
:100140006D65725F72656164333228293A2025300B
:10015000346C580A006B6579626F6172645F696420
:100160006C653A2025580A006B6579626F6172648C
:100170005F70726F746F636F6C3A2025580A006865
:100180006F73745F6B6579626F6172645F6C6564D5
:100190007328293A2025580A000A092D2053746132
:1001A000747573202D0A004743433A20382E342EAD
:1001B00030204156522D4C4942433A20322E302EA7
:1001C00030204156525F415243483A2061767235A1
:1001D0000A004F5054494F4E533A204C5546412047
:1001E000434F4E534F4C4520434F4D4D414E4420BD
:1001F000343039360A004255494C443A2022302ED8
:1002000031302E33342D32312D6732373764373465
:100210002D646972747922202831343A33373A34A4
:1002200034204665622031302032303231290A00D4
:100230005649443A20307832334638286576616E24
:10024000636F6F6B2E617564696F29205049443A62
:10025000203078616332322861633232292056457A
:10026000523A20300A000A092D2056657273696FD0
:100270006E202D0A000A092D20436F6E736F6C6586
:10028000202D0A4553432F713A09717569740A008C
:100290000A092D204D61676963202D0A443A0944FB
:1002A00065627567204D65737361676520546F677C
:1002B000676C650A583A094D617472697820446523
:1002C000627567204D6F646520546F67676C6520A9
:1002D0002D2053686F77206B657970726573736535
:1002E0007320696E206D6174726978206772696429
:1002F0000A4B3A094B6579626F617264204465620A
:10030000756720546F67676C65202D2053686F7781
:10031000206B65797072657373207265706F72748B
:100320000A4D3A094465627567204D6F7573652003
:10033000546F67676C650A563A0956657273696F40
:100340006E0A533A095374617475730A433A09414A
:100350006374697661746520436F6E736F6C65209A
:100360004D6F64650A46312D4631303A095377693D
:1003700074636820746F204C6179657220302D3968
:100380002028463130203D204C30290A302D393A82
:100390000953776974636820746F204C61796572C2
:1003A00020302D390A47524156453A09537769742E
:1003B000636820746F204C61796572203020286159
:1003C0006C7465726E617465290A423A094A756DEA
:1003D0007020746F20426F6F746C6F616465720A75
:1003E0004553433A094A756D7020746F20426F6F10
:1003F000746C6F616465722028616C7465726E61E3
:100400007465290A453A095072696E742045455051
:10041000524F4D2053657474696E67730A4253508E
:100420004143453A09436C65617220454550524F3E
:100430004D0A000A002575002E6E6B726F3A20007F
:100440000A002575002E737761705F6261636B73BC
:100450006C6173685F6261636B73706163653A209E
:10046000000A002575002E737761705F67726176F0
:10047000655F6573633A20000A002575002E6E6F74
:100480005F6775693A20000A002575002E73776151
:10049000705F72616C745F726775693A20000A0060
:1004A0002575002E737761705F6C616C745F6C678B
:1004B00075693A20000A002575002E737761705F18
:1004C0007263746C5F726775693A20000A00257563
:1004D000002E737761705F6C63746C5F6C67756915
:1004E0003A20000A002575002E636170736C6F63FB
:1004F0006B5F746F5F636F6E74726F6C3A20000A8B
:10050000002575002E737761705F636F6E74726F74
:100510006C5F636170736C6F636B3A20000A002537
:10052000303258006B65796D61705F636F6E66691C
:10053000672E7261773A20000A002575002E6D6FD4
:100540007573653A20000A002575002E6B65796287
:100550006F6172643A20000A002575002E6D617487
:100560007269783A20000A002575002E656E616276
:100570006C653A20000A00253032580064656275C7
:10058000675F636F6E6669672E7261773A20000A53
:100590000025750064656661756C745F6C617965D2
:1005A000723A20003F000A6D6F7573653A206F66DE
:1005B000660A000A6D6F7573653A206F6E0A000A4D
:1005C0006B6579626F6172643A206F66660A000A31
:1005D0006B6579626F6172643A206F6E0A000A6D12
:1005E00061747269783A206F66660A000A6D6174F8
:1005F0007269783A206F6E0A000A64656275673A1C
:10060000206F66660A000A64656275673A206F6E3D
:100610000A000A0A4A756D70696E6720746F20625D
:100620006F6F746C6F616465722E2E2E2000433ED6
:100630002000436C656172696E6720454550524FDA
:100640004D0A006565636F6E6669673A0A005B7301
:100650005D004B6579626F617264207374617274BE
:100660002E0A005B575D005B535D005B525D005BD3
:10067000445D005B435D000403300000000A036139
:100680000063003200320000001E03650076006146
:10069000006E0063006F006F006B002E006100753C
:1006A00000640069006F000000040309040902A649
:1006B00000040100A0FA090400000103010100097F
:1006C00021110100012240000705810308000A09E9
:1006D000040100020300000009211101000122228F
:1006E000000705820320000107050203200001081E
:1006F0000B020201010000090402000001010000D8
:100700000924010001090001030904030002010397
:100710000000072401000141000624020101000637
:10072000240202020009240301030102010009243A
:100730000302040101010009050402400005000054
:10074000052501010109058302400005000005257A
:100750000101031201100100000008F82322AC007F
:1007600000010203010631FF0974A101097515009A
:1007700026FF009520750881020976150026FF00E6
:10078000952075089102C005010906A10105071908
:10079000E029E7150025019508750181029501758D
:1007A0000881010507190029FF150026FF0095069D
:1007B0007508810005081901290595057501910243
:1007C000950175039101C00011241FBECFEFDAE03F
:1007D000DEBFCDBF04B603FE27C08091B302909167
:1007E000B402A091B502B091B6028730904BA740F9
:1007F000B04BD1F41092B3021092B4021092B50231
:100800001092B60214BE84B7877F84BF0FB6F894E7
:10081000A8958091600088618093600010926000CC
:100820000FBEE0E0F8E3099511E0A0E0B1E0E4E6F6
:10083000FCE402C005900D92A233B107D9F722E083
:10084000A2E3B1E001C01D92A33BB207E1F70E9411
:10085000D81F0C9408260C940000FF93EF93E091AE
:100860003201F0913301309709F00995EF91FF9132
:100870000895FC018591803011F0EFDFFBCF0895E2
:10088000FF27E0E230E247FF0CC0419597FF09C027
:10089000EDE26095709580959095611D711D811DAB
:1008A000911D27FF02C0219530E350E2AA27660F71
:1008B000771F881F991FAA1FA41710F0A41B639508
:1008C0005A95A9F7AA3008F0A95FA05DAF93F395F8
:1008D000611571058105910541F7ED3211F4EF9332
:1008E000F395F21718F43F93F395FBCF8F91B5DF93
:1008F000FA95E1F70895E991F9918591803021F019
:10090000853219F0AADFF9CF089520E0E8945591D7
:100910005532C1F3503311F4689455915A3348F469
:10092000505390F3220F022E220F220F200D250F7D
:10093000F4CF0EF4219589919991533619F35337D9
:1009400029F1533559F1BC0188279927E8945C3681
:1009500021F48991999168945591543639F446EF70
:100960007EF077FF0DC08FEF9FEF0AC055374AE04A
:1009700039F0583540E121F0523642E009F008954F
:10098000FF93EF937DDFEF91FF91B7CFFF93EF934D
:10099000FC0181918030B9F360DFFBCFFF93EF93CF
:1009A00068DFF1CFDF93CF93CDB7DEB72596A3DF16
:1009B000CF91DF91089581E0089581E008950C942E
:1009C000DD0408950C94E1041F93CF93DF9300D0CE
:1009D00000D00F92CDB7DEB749835A836B83309135
:1009E000450189819A8131111DC06623B9F0222306
:1009F000A9F00E942314182F682F89819A810E94E0
:100A0000CE1369817A81812F0F900F900F900F90F4
:100A10000F90DF91CF911F910C94AA050E94FB13B8
:100A2000182FEFCF0E94231469817A81EDCFFC014A
:100A3000262F408151816281738184810C94E4046A
:100A4000CF93DF93EC0160E00E941705BE01DF91B8
:100A5000CF910C94E2040E948415811102C00E947F
:100A600021160C9494070C94970708950C9435055F
:100A700081E008950C943805CF93C82F0E94360565
:100A80008C2FCF910C943A0508950E94350F0E9447
:100A900044052FEF84E39CE0215080409040E1F733
:100AA00000C000000C944A170F931F93CF93DF935D
:100AB000EC0161E00E9417058C01BE010E94DF0479
:100AC000882311F1BE01C8010E9443098823E1F087
:100AD000BE01C8010E9495098823B1F0BE01C8017A
:100AE0000E94B80A882381F08A81882341F101306D
:100AF0008CE5180779F00E3D8CE51807E9F0011533
:100B00001C45E9F40E94450580E0DF91CF911F91DB
:100B10000F91089590919D01892F8E7F90FF8160A4
:100B200080939D0180FF05C080ED90E00E94390414
:100B3000EBCF8EEB90E0FACF0E942116E5CFCE01ED
:100B4000DF91CF911F910F910C94DB0490E080E036
:100B500008950895972F70E023E0929F600D711D16
:100B60001124FB0199E0899FE00DF11D1124EE0F86
:100B7000FF1FE455FF4F859194910895FC01EE0FFE
:100B8000FF1FEF51FF4F859194910895CF93DF930D
:100B90000E94AA050E94B906EC01811521E5920781
:100BA000D0F5811530E5930708F096C08115904285
:100BB000F8F4C11581E0D807B8F4C03ED10588F437
:100BC000C03CD10508F07BC0C130D10569F0209749
:100BD00059F0CE010497813A910530F0D0E0C0E0A1
:100BE00003C0C83ED105D0F7CE01DF91CF91089563
:100BF000C11590E4D90708F06CC0CE019F70C115F3
:100C000020E3D20708F45EC0CE019927D3FF5EC06F
:100C1000EC01D86CE9CF811535E5930700F5811516
:100C200044E5940708F08DC0C11583E5D80708F0A6
:100C300074C0C11592E5D90708F46AC0CE0183706B
:100C4000992721E030E002C0220F331F8A95E2F796
:100C5000C695C69580E2C89FE001112455C0811554
:100C600029E59207A0F4811538E5930708F06EC0D6
:100C7000811546E5940708F0B1CF0E945007C82FB0
:100C8000D0E0DC2FCC27CC27DF71D062ADCFC115EF
:100C90008AE5D80708F45FC0CE01905681159042CE
:100CA00008F09CCF8D2F8F710E94500790E0982FF5
:100CB000882788279F719C012C2BE901E6CFCE0164
:100CC000805C91090E94BE05EC018ECFEC01D06CD6
:100CD0008BCFDF70D06A88CFE4E096958795EA9550
:100CE000E1F783702C2F26952695237040E2249FF0
:100CF00090011124382B8C2F8370C1E0D0E002C00A
:100D0000CC0FDD1F8A95E2F7C22BD32BDC686CCFAA
:100D1000DC2FCC27C16FD06A67CFCE0183709927B3
:100D200021E030E002C0220F331F8A95E2F7C6951A
:100D3000C69590E2C99FE0011124C22BD32BDA683B
:100D400053CFD82FCC27C46FD06A4ECFD82FCC2703
:100D5000C06FD06A49CF8C2F8F700E94500734E04B
:100D6000D695C7953A95E1F7CF709C2FEC01D069E5
:100D70003BCF82389105B1F1B0F48133910509F48C
:100D800075C048F48932910509F469C08A32910529
:100D900009F473C008958533910509F459C0893366
:100DA000910501F10895833E9105A9F138F4803E43
:100DB0009105F9F0823E910549F10895863E91052D
:100DC000A9F1873E9105C9F1843E910519F520915D
:100DD000B80121FF1FC08091B70184FD14C087EEC8
:100DE00090E008952091B7012370A1F080EE90E08B
:100DF00008952091B70120FD47C03091B80130FF20
:100E000009C024FF44C090E080E004C02091B701F5
:100E100022FDF7CF08952091B70122FD3BC030910C
:100E2000B80130FDE3CF24FFF5CFEDCF2091B7011E
:100E300023FFF0CF24FDE7CFD2CF2091B70123FDD0
:100E40002CC03091B80131FFEECF84EE90E00895D0
:100E50002091B70125FFDECF89E290E0089520912F
:100E6000B70125FFD7CF85E390E008952091B70122
:100E700026FFD0CF8AE290E008952091B70126FFA7
:100E8000C9CF81E390E0089589E390E0089583EE6F
:100E900090E0089582EE90E0089586EE90E0089547
:100EA0009091B70192FF06C0282F28712830F9F4DD
:100EB000877F846093FF06C0282F28712831F1F4C2
:100EC000877E84612091B80120FF06C0382F3871D9
:100ED0003830D9F4877F816021FF06C0282F287120
:100EE0002831D1F4877E816194FD877E0895282F73
:100EF00024712430F9F68B7F8860DCCF282F247191
:100F0000243101F78B7E8861DDCF382F317131308C
:100F100019F78E7F8860E0CF282F2171213121F7CA
:100F20008E7E8861E1CF08950C94930708950C9408
:100F30009607E82FF0E0E055FE4F80810895CF92AC
:100F4000DF92EF92FF920F931F93CF93DF9380EF87
:100F500090E00E94390480EBE82E81E0F82ED0E08A
:100F6000C0E09BEEC92E90E0D92E03EE10E0DF9397
:100F7000CF93DF92CF920E94D20488EE90E00E943D
:100F80003904F70181917F010E946C151F928F93A4
:100F90001F930F930E94D20481EE90E00E943904C7
:100FA00021968DB79EB708960FB6F8949EBF0FBED8
:100FB0008DBFC330D105D9F6DF91CF911F910F912D
:100FC000FF90EF90DF90CF900895FF920F931F93C3
:100FD000CF93DF9329E131E062E271E0C1E0D0E03C
:100FE000D90150E040E08D918F3F91F0E82FE295DC
:100FF000EF70F0E0F1A08F708E0101C0000F8A95B4
:10100000EAF7902F90959F2191A382A1802B82A334
:101010004F5F5F4F4330510531F72D5F3F4F6217F0
:101020007307F1F61092AD011092B0011092AE016B
:101030001092B1011092AF011092B20183E00E94B0
:101040007D08DF91CF911F910F91FF900C942B059C
:10105000EF92FF920F931F93CF93DF93EDEAF1E0AE
:1010600069E171E0C0E001E010E07B0150E040E0A8
:1010700030E0D7012D917D012F3FB9F0822F82956D
:101080008F7090E0DC0190968C9190E02F7002C000
:10109000959587952A95E2F780FD2BC0C801042E0F
:1010A00001C0880F0A94EAF7382B4F5F5F4F433037
:1010B0005105F9F680818317F1F0308381E0C82B68
:1010C00031966D5F7F4FB1E062327B0771F62C2F56
:1010D00043E060EB71E08DEA91E00E947E080E949F
:1010E00033058C2FDF91CF911F910F91FF90EF90DF
:1010F000089580E0D9CF80E0E2CF0895FF920F936A
:101100001F93CF93DF93F82E092F162FD72FC42FBD
:10111000222349F081E0809336010E94FF169093CC
:10112000350180933401809136018823A1F08091AC
:101130003401909135010E941717069760F0EF2D4A
:10114000F02FA12FBD2FCE0FDF2FD11DEC17FD07E4
:1011500041F410923601DF91CF911F910F91FF90D2
:10116000089581918D93F2CF89EB91E00C944E1C00
:10117000AF92BF92CF92DF92EF92FF920F931F93A5
:10118000CF93DF937C015B01C42FD22FFC018281BE
:101190008823F9F0409339010E94FF16909338019B
:1011A0008093370180E28C0F883008F061C0C770EF
:1011B00081E001C0880FCA95EAF7DF91CF911F91B6
:1011C0000F91FF90EF90DF90CF90BF90AF900C9475
:1011D000EC0C10913901141340C0809137019091AB
:1011E00038010E9417176C01B701C5010E94AB11AD
:1011F000C816D90690F5C0E2CD0F1D17B9F080E2F0
:10120000810F883040F4177081E001C0880F1A9573
:10121000EAF70E94F30CC83048F481E09D2F9770E4
:1012200001C0880F9A95EAF70E94EC0C802F0E946B
:10123000D90CC830E8F4D77081E001C0880FDA9586
:10124000EAF7DF91CF911F910F91FF90EF90DF9020
:10125000CF90BF90AF900C94F30C80E28C0F88304D
:1012600038F4C77081E001C0880FCA95EAF7E9CF6A
:10127000DF91CF911F910F91FF90EF90DF90CF9072
:10128000BF90AF9008950F939C01CB01233F4CE595
:10129000340759F1A8F4283DFCE53F0701F1293D49
:1012A0004CE53407D1F1273D3C4591F406E221EEAF
:1012B00041EE67ED7CE50E94B80880E00F9108954B
:1012C000253FFCE53F07E9F0B0F0263F3C45F9F04B
:1012D000FC018281882339F110923901EFCF07E2B6
:1012E00025EE45EE68ED7CE5E6CF06E221EE40EE28
:1012F00063EF7CE5E0CF07E225EE44EE64EF7CE5AA
:10130000DACF06E221EE42EE65EF7CE5D4CF07E2CC
:1013100025EE46EE66EF7CE5CECF08E221E045EE15
:1013200069ED7CE5C8CF81E0C9CFCF93DF93EC01B5
:10133000FB018281882309F419C1C230FCE5DF0773
:10134000C0F1C6319CE5D90730F09E012A5F3C45CB
:101350002930310570F50E9497159093B80180935C
:10136000B701C031ECE5DE0709F4CFC008F05BC07F
:10137000C8308CE5D80709F4B6C088F5C430ECE570
:10138000DE0709F4A8C0C0F4C2308CE5D80709F420
:101390009CC08091B7018260C330DC4509F498C0DD
:1013A0008091B7019091B8010E94A5150E94350F58
:1013B00080E0DF91CF9108958091B7018061C630C0
:1013C000ECE5DE0709F484C08091B7018860C7307E
:1013D000DC4508F47DC08091B701806279C0CC30D3
:1013E0008CE5D80709F489C070F48091B7018C604E
:1013F000CA30ECE5DE0709F46BC008F478C08091D0
:10140000B7018E7F65C0CE308CE5D80709F479C06E
:101410008091B7018B7FCF30DC4508F459C08091B3
:10142000B7018F7E55C0CB3FECE5DE0709F457C00E
:1014300030F5C3318CE5D80709F46FC078F4C131B9
:10144000ECE5DE0709F465C0C231DC4509F0A8CF40
:101450000E94350F8091B7018F773AC0C5318CE576
:10146000D80709F462C008F476C08091B8018160A1
:10147000CA3FDC4509F094CF8093B80191CFCF3FAC
:10148000FCE5DF0709F44DC088F48091B8018D7F39
:10149000CD3F9CE5D90781F38091B8018E7FCE3F87
:1014A000DC4550F38091B8018360E6CFC130FDE5A3
:1014B000DF0709F459C008F444C080E0C230DD45BC
:1014C00009F06ECF0E9423166BCF8091B701816027
:1014D0008093B70165CF8091B7018460F9CF809187
:1014E000B8018260C9CF8091B7018064F1CF0E94BA
:1014F000350F8091B7018068EBCF8091B7018D7F68
:10150000E7CF8091B701877FE3CF8091B7018F7DCF
:10151000DFCF8091B7018F7BDBCF8091B701837FD5
:10152000D7CF8091B8018C7FA7CF8091B70182FB84
:10153000992790F921E0922790FB82F990FB83F99B
:10154000C7CF8091B801982F909591708E7F892B8D
:1015500090FB81F991CF0E94350F9091B701892FAF
:1015600097FB87F98058B4CF81E0ACCF81E021CFE1
:10157000CF93DF93EB0186319C4511F50E94B8149F
:101580009A81992399F08A7A91E009F490E09093F6
:101590003A01811109C089E20E9493140E94041546
:1015A00080E0DF91CF91089585E3F6CF80913A01F5
:1015B000811104C089E20E949A14F0CF85E3FBCF29
:1015C00081E0EFCF9093400180933F010895E09137
:1015D0003F01F0914001309721F00190F081E02D22
:1015E000099480E00895EF92FF920F931F93CF9399
:1015F000DF938C01E0913F01F09140013097C1F100
:101600000280F381E02D099580919D0182FF30C019
:1016100080FF04C087E091E00E943904D0E0C0E080
:1016200081E0E82E81E0F82E80919D0180FF0EC0C0
:10163000F801EC0FFD1F80811F928F93FF92EF92B4
:101640000E94D2040F900F900F900F902196C830F7
:10165000D10551F780919D0180FF0AC08FEF90E086
:10166000DF91CF911F910F91FF90EF900C9439046F
:10167000DF91CF911F910F91FF90EF9008952091EE
:101680003D0130913E012817390771F090933E01DA
:1016900080933D01E0913F01F0914001309721F0AE
:1016A0000680F781E02D0994089520913B01309147
:1016B0003C012817390771F090933C0180933B015E
:1016C000E0913F01F0914001309721F00084F185D5
:1016D000E02D0994089585B7806885BF85B7806837
:1016E00085BF0895089508950C94720B08950C9485
:1016F000760B0E946B0B0E94730B0C94740B81E0B1
:1017000008950C947F0B0E94F6160E94E5070E9434
:101710005B170C94770BCF93C82F80919D0182FFAC
:101720001EC080FF1CC080E291E00E9439048091BD
:101730009D0180FF14C01F92CF938BE191E09F9396
:101740008F930E94D20480919D010F900F900F9073
:101750000F9080FF04C089E191E00E9439048C2F32
:10176000CF910C943C05BF92CF92DF92EF92FF9203
:101770000F931F93CF93DF93CDB7DEB72A970FB6A2
:10178000F894DEBF0FBECDBF0E9428080E94810BD7
:10179000882309F466C032E4C32E31E0D32E10E072
:1017A00000E0B02E802F0E949907E82EF601F190FC
:1017B0006F01F81609F44FC080919D0181FD0E94D0
:1017C0009F078F2D8E25F82FF170FF2E80FD3DC0D5
:1017D00081FD3DC082FF3FC082E024E0F22E8E8377
:1017E000BF82EF2081E009F480E088870E94FF1625
:1017F0008160782F9A8789874E815F8168858A8585
:101800000E94520CF801EE5BFE4F8081F826F082B8
:101810000E94B4080E94E70A90914101891791F152
:101820000E94E70A809341012A960FB6F894DEBF22
:101830000FBECDBFDF91CF911F910F91FF90EF9021
:10184000DF90CF90BF900C948B0B80E0C8CF81E0ED
:1018500092E0F92EC4CF0F5F1F4F0330110509F03E
:10186000A0CF8FEF89838A831B820E94FF1681603D
:10187000782F9D838C8349815A816B818D810E9451
:10188000520CC6CF2A960FB6F894DEBF0FBECDBF5E
:10189000DF91CF911F910F91FF90EF90DF90CF904C
:1018A000BF900895CF93DF93CDB7DEB72B970FB6D8
:1018B000F894DEBF0FBECDBF4F83588769877A8704
:1018C0008B871E821D8285E0FE013796DE01119610
:1018D00001900D928A95E1F749815A816B817C8153
:1018E0008D819E812B960FB6F894DEBF0FBECDBFC3
:1018F000DF91CF910C94AE11FC01808191810C9409
:101900006514CF93C82F882351F18CEF8C0F813A47
:10191000C8F48C2F0E94FF19811121C06C2F809177
:101920000001909101010E943A16882329F08C2F22
:101930000E949A140E9404158C2F0E949314CF9138
:101940000C94041580E28C0F883048F4C77081E055
:1019500001C0880FCA95EAF70E94BB14F0CFCF915F
:101960000895882329F19CEF980F913A20F40E9462
:101970009A140C94041590E2980F983050F48770E4
:1019800091E001C0990F8A95EAF7892F0E94C1144E
:10199000F0CF9BE5980F933020F490E080E00C941A
:1019A0003F0B885A873120F490E080E00C94550B6F
:1019B0000895CF93C82F0E94810CC93349F42FEFAB
:1019C00087EE93E0215080409040E1F700C0000096
:1019D0008C2FCF910C94B10C882321F00E94BB1462
:1019E0000C9404150895882321F00E94C1140C94CE
:1019F00004150895BF92CF92DF92EF92FF920F935A
:101A00001F93CF93DF936C01D62FC72FFC01158155
:101A100012951F70028101110E94D8140E94B11406
:101A2000E82E882391F00023D1F08C2F807F803422
:101A300021F080E28D0F883090F082E00E944F15F7
:101A40000E94B11491E0E82EE926BC2EB2949FE0EA
:101A5000B922EB2DF0E0E65FF94D0C94C025E12CA6
:101A6000F4CF1C2F1F70C07F11F01295107F002340
:101A7000A9F0112359F080E28D0F883010F0D111B8
:101A800009C0812F0E94BB140E9404158D2F0E9453
:101A9000810C14C0812F0E94CB14F6CF8D2F0E9491
:101AA000B10C112359F080E28D0F883010F0D11164
:101AB0002CC0812F0E94C1140E9404152B2D285088
:101AC000330B2430310520F40E94E70A0E943C05C4
:101AD000EE2009F477C10E94AD1480FD73C1F601B8
:101AE00012820E94A7140E943213C6010E94030FA3
:101AF0000E94A714DF91CF911F910F91FF90EF905B
:101B0000DF90CF90BF900C945313812F0E94D1147B
:101B1000D3CFFC2FFF70FF2EC07FC03219F0F2949C
:101B200080EFF822DD2369F0D13049F1002391F1F3
:101B3000112351F1F601858180FFA8CF8F70858335
:101B400023C0002381F0111106C00E94EB148F29DD
:101B50000E94EC0CB3CF1130C1F70E94EB148F2917
:101B60000E94F114ABCF111106C00E94FA148F2D00
:101B70000E94F30CA3CF113009F4A0CFF6CF0023BD
:101B800029F0163008F09ACF8F2DE2CF153008F0EB
:101B900095CFEDCF112359F3D93349F4FFEF27EE59
:101BA00033E0F15020403040E1F700C000008D2FBD
:101BB0000E94B10C83CF8C2F837009F041C00111BA
:101BC0007DCF4D2F429546954770440F440F0D2F02
:101BD0000F7010E030E020E0042E04C0000F111F51
:101BE000221F331F0A94D2F760E070E0CB01D4FFCC
:101BF0000FC06FE070E080E090E004C0660F771FD8
:101C0000881F991F4A95D2F7609570958095909599
:101C1000C695C695C370602B712B822B932BC23057
:101C200049F058F4C13019F00E94E41247CF0E94E5
:101C3000D21244CF0E94F61241CF0E94D0123ECF62
:101C40008695002311F08C2F8170882309F436CFFC
:101C50004D2F429546954770440F440F0D2F0F703E
:101C600010E030E020E0042E04C0000F111F221FFE
:101C7000331F0A94D2F760E070E0CB01D4FF0FC0AD
:101C80006FE070E080E090E004C0660F771F881F6F
:101C9000991F4A95D2F76095709580959095C69555
:101CA000C695C370602B712B822B932BC23049F0E9
:101CB00058F4C13019F00E94A91300CF0E94971365
:101CC000FDCE0E94BB13FACE0E940C13F7CECF704C
:101CD000002329F08C2F0E9432138D2F39CF8D2FA6
:101CE0000E94F30C8C2F0E945313E8CED23F89F14F
:101CF00060F4D03FC9F0D13F29F1002309F442C07C
:101D00001111C4CE8C2F8F7121C0D33F39F1D43F34
:101D1000A1F7002369F1CF718C2F0E94321363E089
:101D20008C2F0E943A15CACE002341F0153008F0DE
:101D3000C5CE8C2F8F710E947613C0CE163008F05E
:101D4000BDCEF7CF8C2F8F71002369F20E94321322
:101D5000B5CE8C2F8F710023C9F3C5CF002329F096
:101D60008C2F8F710E941D13A9CE0E941813A6CE2E
:101D700081E00E944F15123008F4A0CE82E00E944C
:101D80004F159CCE112359F0D93309F010CF8FEFA6
:101D900097EEE3E081509040E040E1F706CF8C2FD2
:101DA0008F71A1CF4C2F4F706D2FC6010E94A605D9
:101DB0000E94481283CE4C2F4F706D2FC6010E9497
:101DC000A9057CCEDF91CF911F910F91FF90EF90ED
:101DD000DF90CF90BF9008950F931F93CF93DF9321
:101DE000EC01688179818A810E946F148C010E94C4
:101DF000CD130E94CF12B801CE01DF91CF911F9178
:101E00000F910C94FA0CCF93DF93EC018B819C81A2
:101E1000892B29F08881998189238F3F59F4DF919B
:101E2000CF910895CE010E94EC0ECE01DF91CF91AB
:101E30000C942005CE010E9454058111F3CF0E941D
:101E4000B114882361F38A81882349F382E0DF910A
:101E5000CF910C944F150E94D8140E94E8140C9452
:101E600004150E94A1140C942B0F0E94C8140C940A
:101E7000310FE92FE295EF70E250EE3070F4F0E0B0
:101E8000E65EF94D0C94C025803F19F020F4883EA1
:101E900020F481E00895843FE1F380E00895883ED6
:101EA000C0F3813FD1F7F5CF93FB882780F90895E0
:101EB0000E9465140C94390FCF93DF9300D000D0AB
:101EC0000F92CDB7DEB70F900F900F900F900F903D
:101ED000DF91CF910895CF93DF9300D000D000D051
:101EE000CDB7DEB726960FB6F894DEBF0FBECDBFD6
:101EF000DF91CF9108951F93CF93DF93C091460157
:101F000016E0809147018C1304C0DF91CF911F919F
:101F10000895D0E01C9FF0011D9FF00D1124E85B97
:101F2000FE4F4081518162817381848195810E943D
:101F30006B0F2196C770E5CF4091780150917901E0
:101F400060917A0170917B0180917C0190917D017B
:101F50000C946B0F1F93CF93DF9380917D01807F53
:101F6000A9F480917A01882389F080914601C0917B
:101F700047016091780170917901A0917B01B09146
:101F80007C01D62FD72316E0C81304C0DF91CF9170
:101F90001F91089590E0109711F0DF3F19F401961A
:101FA0008770F2CF189F9001199F300D1124F9010D
:101FB000E85BFE4F41814713F2CF40814613EFCFDC
:101FC00042814111ECCF438154814A1B5B0B483C59
:101FD000510528F780917D018F70806180937D018C
:101FE000F901E35BFE4F80818F708061808388E719
:101FF00091E00E94030FDF91CF911F910C947B0F12
:10200000AF92BF92CF92DF92EF92FF920F931F9306
:10201000CF93DF93CDB7DEB761970FB6F894DEBFED
:102020000FBECDBF8C0185E0F801DE011D96019049
:102030000D928A95E1F7F80140815181E28088E7AD
:10204000C82E81E0D82E60917B0170917C016115D2
:10205000710509F461C19091780120917901892F6E
:1020600082238F3F09F458C1A380B480F0907A0195
:10207000F501E61BF70BFF2009F4FCC080917D0100
:10208000382F307FE83CF10508F0B2C0311179C03B
:10209000FE2C251323C0941321C0E1101FC08F70A4
:1020A000806180937D010E949C0FC6010E94030FF6
:1020B00080917D01F80185838F2D61960FB6F8948C
:1020C000DEBF0FBECDBFDF91CF911F910F91FF906B
:1020D000EF90DF90CF90BF90AF900895AB2829F09C
:1020E000842F85238F3F09F033C180E0F82FF170F2
:1020F000DF2E80FF3CC0809146012091470136E0F1
:10210000821315C04D875E878D859E850E9465145C
:10211000292F22952F702230F0F0243018F59F706F
:10212000F1F0F8019581907FD1F4D12C1EC090E0A0
:10213000389FF001399FF00D1124E85BFE4F61815B
:10214000651306C06081641303C062816E110FC005
:1021500001968770D5CF9F7011F0882331F3805E90
:10216000883018F3C8010E94030FFD2CA5CFEE2084
:1021700009F4A2CF80917D01816080937D01F12CD3
:102180009BCF251306C0941304C0F801EE2009F478
:102190008DC04D875E878D859E850E94580F882350
:1021A00019F1EE2009F180917D01803270F02091CB
:1021B00078013091790138872F831986BB86AA86EA
:1021C0008C87CE0107960E94030F86E0F801A8E7EE
:1021D000B1E001900D928A95E1F70E94AA0F0E944A
:1021E0009C0FFF24F39468CFC8010E94030FF9CF1E
:1021F000311113C07A2DB98AA88A6E2D89890E945F
:102200005C0F88E791E00E94030F86E0F6011192CF
:102210008A95E9F70E949C0FB2CF25130FC0941343
:102220000DC0E1100BC0F8018583C8010E94030FA7
:1022300086E0F60111928A95E9F73ECF4D875E87D9
:102240008D859E850E94580F882371F2EE2061F2E1
:1022500080917D01803208F4B8CF209178013091CF
:1022600079013A8329831B82BD82AC828E83CE01A1
:102270000196A9CFE83CF10508F041C0FE2CEE2004
:1022800009F4B2CF25132AC0941328C080917D0190
:1022900080FD1BC0982F907FC1F0F8018583903F8F
:1022A00031F0982F907F905F8F70892B8583C801C4
:1022B0000E94030F86E0F801A8E7B1E001900D92BB
:1022C0008A95E1F70E949C0FF7CE86E0F801A8E717
:1022D000B1E001900D928A95E1F7EECE4D875E87D1
:1022E0008D859E850E94580F81116FCF80917D0151
:1022F000816080937D01C8010E94030FDDCE7A2D9D
:10230000B98AA88A6E2D89890E945C0F86E0F60141
:1023100011928A95E9F7D6CFEE2009F465CF4D8763
:102320005E878D859E850E94580FF82E882309F4BC
:102330005BCF86E0F801A8E7B1E001900D928A95A5
:10234000E1F788E791E00E947C0C0E94AA0FBACFC7
:1023500081E08E25CBCE88EC90E008951F93CF933B
:10236000DF93CDB7DEB72C970FB6F894DEBF0FBE64
:10237000CDBF4F83588769877A878B879C87CE012B
:1023800007960E940010882369F08A859B85892B17
:1023900039F04F815885842F85238F3F09F071C014
:1023A00016E05FC086E0FE013796DE0111960190CF
:1023B0000D928A95E1F78A859B85892B89F38F8118
:1023C000988589238F3F61F32091470130E0C9014F
:1023D000019687709927409146014817190671F4B4
:1023E0000E94350F109247011092460186E0E8E7FF
:1023F000F1E0DF011D928A95E9F7D2CF96E0929F36
:10240000D001939FB00D1124A85BBE4FFE01319601
:1024100001900D929A95E1F7809347010E947B0FFE
:10242000BFCF819FC0011124885B9E4F0E94001086
:102430008823E9F0E09146011E9FF0011124E85B3A
:10244000FE4F4081518162817381848195810E9418
:102450006B0F8091460190E00196877099278093D9
:10246000460180914601909147018913DACF2C965D
:102470000FB6F894DEBF0FBECDBFDF91CF911F9195
:10248000089569857A858B859C850E946B0F88CF1E
:10249000EF92FF920F931F93CF93DF938C01892BC1
:1024A00081F0F12CEE24E394E8012196F801849167
:1024B000843770F4843008F05FC08130B1F082302E
:1024C000A1F1DF91CF911F910F91FF90EF900895AF
:1024D000853709F44CC008F43DC09CE7980F90374D
:1024E00080F78F770E94B10C49C00E5F1F4FFE012D
:1024F000849190E2980F983060F48770FE2D01C0AF
:10250000FF0F8A95EAF78F2F0E94DB140E940415B3
:1025100002C00E94810C8F2D815030F2EFE9FFE064
:102520003197F1F700C00000F7CF0E5F1F4FFE019B
:10253000849190E2980F983050F48770FE2D01C07E
:10254000FF0F8A95EAF78F2F0E94E114DFCF0E94D8
:10255000B10CE1CF0E5F1F4FFE01C491C150D8F204
:102560008FE99FE00197F1F700C00000F7CF0E5F01
:102570001F4FFE01F490CFCF0E94810C8E01CBCF74
:1025800008950C94C0120E94C11260938C01709344
:102590008D0180938E0190938F010C942B0F0895E1
:1025A0000C94C3120F931F9300918C0110918D0115
:1025B00020918E0130918F01602B712B822B932BF8
:1025C0001F910F910C94C3120F931F9300918C01D4
:1025D00010918D0120918E0130918F016023712324
:1025E000822393231F910F910C94C3120F931F9377
:1025F00000918C0110918D0120918E0130918F01FD
:1026000060277127822793271F910F910C94C31283
:102610000C94C0120C9408130E940A136093880152
:102620007093890180938A0190938B010C942B0FF6
:1026300060E070E0CB010C940C130F931F9341E00A
:1026400050E060E070E08A019B0104C0000F111FA0
:10265000221F331F8A95D2F7C901B8011F910F912C
:102660000C940C130F931F9341E050E060E070E076
:1026700004C0440F551F661F771F8A95D2F78091BB
:10268000880190918901A0918A01B0918B018A0102
:102690009B01082B192B2A2B3B2BC901B8011F9139
:1026A0000F910C940C130F931F9341E050E060E0E6
:1026B00070E004C0440F551F661F771F8A95D2F73C
:1026C000CB01BA0160957095809590950091880135
:1026D0001091890120918A0130918B01602371232F
:1026E000822393231F910F910C940C130F931F932C
:1026F00041E050E060E070E004C0440F551F661FE9
:10270000771F8A95D2F78091880190918901A091D5
:102710008A01B0918B018A019B01082719272A277A
:102720003B27C901B8011F910F910C940C130F9313
:102730001F93009188011091890120918A013091A5
:102740008B01602B712B822B932B1F910F910C947B
:102750000C130F931F930091880110918901209110
:102760008A0130918B0160237123822393231F916F
:102770000F910C940C130F931F93009188011091EB
:10278000890120918A0130918B016027712782276E
:1027900093271F910F910C940C130895E92FEE0FBE
:1027A0009E0F890F982F977041E001C0440F9A95B2
:1027B000EAF786958695869595E0899FF001112424
:1027C000E258FE4F30E020E070E05191DF011197B8
:1027D000CB01022E02C0969587950A94E2F781708C
:1027E00081958527842385278C932F5F3F4F253044
:1027F000310559F70895E92FEE0F9E0F890F982F95
:10280000977086958695869525E0829FF001112424
:10281000E258FE4F50E040E080E0219130E0092E88
:1028200002C0369527950A94E2F721703327042ECB
:1028300001C0220F0A94EAF7822B4F5F5F4F4530A9
:10284000510559F70895BF92CF92DF92EF92FF9210
:102850000F931F93CF93DF938C01C0908801D0908A
:102860008901E0908A01F0908B0180918C01909118
:102870008D01A0918E01B0918F01C82AD92AEA2A30
:10288000FB2ACFE1D0E0BC2ED701C6010C2E04C03C
:10289000B695A795979587950A94D2F780FD0EC0B7
:1028A000219788F7B12C8B2DDF91CF911F910F913C
:1028B000FF90EF90DF90CF90BF900895B8018C2FDC
:1028C0000E94C605019761F3EECFCF93DF93EC0131
:1028D0000E942314BE01DF91CF910C94C6051F9373
:1028E000CF93DF93EB0190914501992331F0CB0118
:1028F000DF91CF911F910C946514882379F0CB015F
:102900000E942314182F682FCE010E94CE13BE01FF
:10291000812FDF91CF911F910C94C605CB010E94AE
:10292000FB13182FF4CF682F8091000190910101C3
:102930000C947016682F80910001909101010C9405
:10294000721680910001909101010C94741680918F
:102950009001859585958595089580919001877062
:10296000089590919001977081E009F480E00895B6
:1029700080919C01089590919C01892B80939C01EA
:102980000895809590919C01982390939C010895BF
:1029900010929C01089590919B01892B80939B013B
:1029A0000895809590919B01982390939B010895A1
:1029B00010929B01089590919A01892B80939A011E
:1029C0000895809590919A01982390939A01089583
:1029D00010929A01089580919101089508950C94A0
:1029E000EE1490919101981721F0809391010C942D
:1029F000EF14089580919101882329F0109291019C
:102A000080E00C94EF140895E0910001F091010131
:102A100080919C018083E0910001F091010180810F
:102A200090919B01892B8083E0910001F09101013D
:102A3000808190919A01892B8083909191019923B3
:102A400081F0E0910001F09101018081892B808368
:102A500080910001909101010E94281681110E942D
:102A6000FA1480910001909101010C94F30A0895E9
:102A70000C94371598E0899F90011124622B609384
:102A800090010E94321380919001859585958595DE
:102A90000C9438151092900180E00C9438159091A8
:102AA00090018095892380939001282F277071F4DD
:102AB000282F082E000C330B9217130639F085953A
:102AC000859585950E9453130C944A15089590930B
:102AD0003301809332010895829590E09C01220F8A
:102AE000331F220F331F2C7C9595879595958795DD
:102AF0008373282B30E0C901880F991F8A7A359596
:102B000027952575822B089590E080E00E94CE25C0
:102B100021E08C3E9E4F09F020E0822F089582E054
:102B200090E00C94C62583E090E00C94C625CF93EA
:102B300084E090E00E94C625C82F81E290E00E94C8
:102B4000C625982F8C2FCF910895CF93C92F682F2A
:102B500084E090E00E94D4256C2F81E290E0CF9138
:102B60000C94D425AB01BC018FE090E00C94E625D9
:102B7000AB01BC0183E190E00C94E62560E070E0DD
:102B8000CB010C94B81560E070E0CB010E94B21547
:102B90000C94BE156CEE7EEF90E080E00E94F22572
:102BA00060E082E090E00E94D42560E083E090E065
:102BB0000E94D42510928C0110928D0110928E01EA
:102BC00010928F0160E084E090E00E94D42560E0E4
:102BD00081E290E00E94D42560E085E090E00E94D0
:102BE000D42560E086E090E00E94D4256FEF87E076
:102BF00090E00E94D42540E050E0BA0188E090E0E7
:102C00000E94E62560E08DE090E00E94D42540E03F
:102C100050E0BA0188E190E00E94E62560E087E19B
:102C200090E00E94D42540E050E0BA018CE190E0B1
:102C30000E94E62560E080E290E00E94D4250C949A
:102C4000C3150C94CA15682F8EE090E00C94D4251F
:102C50009C012E5F3F4FAC01485F5F4F80E024171F
:102C6000350709F40895F90191919F019923B9F36A
:102C70008F5FF5CF662349F0FC01329608962191CB
:102C8000261729F0E817F907D1F780E0089581E0C9
:102C900008959C01FC0132969FEF80E04191461718
:102CA00051F09F3F19F4411101C0982F8F5F86307A
:102CB000A9F79F3F09F40895290F311D97FD3A9513
:102CC000F90162830895FC0132960896219126133A
:102CD00003C0DF0111971C92E817F907B9F70895AF
:102CE0000C9449160C946316029626E0FC0111928E
:102CF0002A95E9F70895089508950C947C160E948A
:102D00007D168091AA02843049F110929E0188E1DB
:102D100090E020E40FB6F894A895809360000FBE71
:102D20002093600080E00E943C050E947D1683B7DE
:102D3000817F846083BF83B7816083BF78948895E7
:102D400083B78E7F83BF0FB6F894A89580916000FB
:102D5000886180936000109260000FBE089508950E
:102D6000CF930E947B160E9428080E94AF16C0E0F5
:102D70008C2F0E949907811105C0CF5FC330C1F726
:102D8000CF91089581E0FCCF08950C94C4160E9461
:102D9000350F0E94E70A0E943C050C94C5161F924D
:102DA0001FB61F9211248F939F93AF93BF9380916F
:102DB0009E01811113C08091B3019091B401A09143
:102DC000B501B091B6014196A11DB11D8093B3012B
:102DD0009093B401A093B501B093B601BF91AF91A8
:102DE0009F918F911F901FBE1F90189582E084BD08
:102DF00093E095BD9AEF97BD80936E0008952FB72D
:102E0000F8948091B3019091B401A091B501B09173
:102E1000B6012FBF08952FB7F8946091B301709158
:102E2000B4018091B5019091B6012FBF08959C0126
:102E30004FB7F8948091B3019091B401A091B5017E
:102E4000B091B6014FBF821B930B089578941F92E7
:102E50001FB61F9211248F939F93AF93BF938091BE
:102E6000B3019091B401A091B501B091B601019662
:102E7000A11DB11D8093B3019093B401A093B5013E
:102E8000B093B601BF91AF919F918F911F901FBEDC
:102E90001F90189587E797E79093010880930008A3
:102EA00088E19AE00FB6F894A895809360000FBE71
:102EB00090936000FFCF0E948415811102C00E9490
:102EC00021160E948F1580939D010E949715909363
:102ED000B8018093B7010E949315682F70E090E0CD
:102EE00080E00E94D01260918801709189018091E8
:102EF0008A0190918B010C940A13CF93C82F1F92D3
:102F00008F9389E391E09F938F930E94D20461E0B5
:102F100070E080E090E004C0660F771F881F991F63
:102F2000CA95D2F70E94D0120F900F900F900F9079
:102F3000CF910C94350FCF93DF938B3109F4FAC105
:102F400008F09CC18B3009F4B8C108F06AC1863022
:102F500009F4C6C148F4853009F49EC184EA95E0BD
:102F60000E94390480E0CCC1873009F4CCC188309C
:102F7000A9F783E496E00E94390484E995E00E9471
:102F800039040E9493151F928F9381E995E09F93D6
:102F90008F930E94D2048FE895E00E9439040E942A
:102FA0008F15C82F8CE795E00E9439041F92CF93AC
:102FB00087E795E09F938F930E94D20485E795E081
:102FC0000E9439048BE695E00E9439048C2F8170B1
:102FD0001F928F9388E695E09F938F930E94D2046F
:102FE00086E695E00E9439048CE595E00E9439045C
:102FF000C1FB882780F91F928F9389E595E09F9305
:103000008F930E94D20487E595E00E9439048BE4F7
:1030100095E00E943904C2FB882780F91F928F93A4
:1030200088E495E09F938F930E94D20486E495E014
:103030000E9439048DE395E00E943904C3FBCC273C
:10304000C0F91F92CF938AE395E09F938F930E94DC
:10305000D20488E395E00E9439040E949715EC01A0
:1030600084E295E00E943904DF93CF938FE195E0ED
:103070009F938F930E94D2048DE195E00E943904C2
:1030800084E095E00E9439048C2F81701F928F9309
:1030900081E095E09F938F930E94D2048DB79EB7F5
:1030A00080960FB6F8949EBF0FBE8DBF8FEF94E051
:1030B0000E94390488EE94E00E943904C1FB8827FD
:1030C00080F91F928F9385EE94E09F938F930E94D7
:1030D000D20483EE94E00E94390481ED94E00E94D2
:1030E00039048D2F81701F928F938EEC94E09F9303
:1030F0008F930E94D2048CEC94E00E9439048AEBF6
:1031000094E00E943904D695D1701F92DF9387EB2B
:1031100094E09F938F930E94D20485EB94E00E94E9
:10312000390483EA94E00E943904C2FB882780F9BD
:103130001F928F9380EA94E09F938F930E94D20412
:103140008EE994E00E9439048CE894E00E943904EE
:10315000C3FB882780F91F928F9389E894E09F939F
:103160008F930E94D20487E894E00E9439048DE78F
:1031700094E00E943904C4FB882780F91F928F9342
:103180008AE794E09F938F930E94D20488E794E0AB
:103190000E94390486E694E00E943904C5FB882722
:1031A00080F91F928F9383E694E09F938F930E9400
:1031B000D20481E694E00E94390485E494E00E9400
:1031C0003904C6FB882780F91F928F9382E494E02C
:1031D0009F938F930E94D2048DB79EB780960FB6AF
:1031E000F8949EBF0FBE8DBF80E494E00E94390426
:1031F00088E394E00E943904C7FBCC27C0F91F92F2
:10320000CF9385E394E09F938F930E94D20483E34E
:1032100094E00E9439040F900F900F900F9081E07E
:103220006FC0803109F49EC080F48E3009F096CED4
:1032300090919D01892F8B7F92FF846080939D01E7
:1032400082FF8DC08FEC95E081C0863109F49AC071
:10325000893109F083CE86E692E00E94390480E34A
:1032600092E00E94390486EF91E00E94390482EDD9
:1032700091E00E94390487EA91E021C08A3249F145
:1032800090F4873211F128F48E3108F467CE8D5115
:103290001DC0893209F062CE82E196E00E943904B5
:1032A0000E944505BCCF833468F48A3308F0A1C07E
:1032B000853359F0883309F051CE80E992E00E94BD
:1032C0003904ADCF833409F049CE80E00E947D17E8
:1032D000A6CF82E396E00E9439040E9421169FCF78
:1032E00080919D01807F80939D0185E792E00E94FF
:1032F00039048EE296E00E94390481E080939F01B8
:10330000DF91CF91089590919D01892F8E7F90FF3D
:10331000816080939D0180FF03C086E096E0CFCF5F
:1033200089EF95E00E94390480919D01817F80930F
:103330009D0175CF90919D01892F8D7F91FF8260B6
:1033400080939D0181FF08C08CEE95E00E943904B6
:1033500080919D018160EBCF8EED95E0B0CF8FEB3A
:1033600095E0ADCF90919D01892F877F93FF886075
:1033700080939D0183FF03C083EB95E0E7CF86EA4E
:1033800095E09DCF89E991E00E9439040E94E70A07
:103390001F928F938FE791E09F938F930E94D204A7
:1033A000809118011F928F9388E691E09F938F93ED
:1033B0000E94D2048091AC011F928F9385E591E029
:1033C0009F938F930E94D2040E940B179F938F9319
:1033D0007F936F938EE391E09F938F930E94D2042B
:1033E0008DB79EB742960FB6F8949EBF0FBE8DBFA5
:1033F00016CF89536BCF80E008950C94FB19CF93BF
:10340000C82F80919F01882331F0813099F010926C
:103410009F0180E00DC00E94B8148232D1F78C2F3A
:103420000E94FB19811119C08C2F0E949B1781707B
:10343000CF9108950E94B814823289F38C2F0E9494
:10344000FD19811119C0C431C9F050F4CB3061F0BD
:1034500083E391E00E94390413C081E090E0E7CF5C
:10346000C93261F0C833A1F785E792E00E943904C0
:1034700085E391E00E94390481E0D9CF10929F0149
:1034800080E0D5CF881F8827881F089591E0883F66
:1034900008F490E0892F0895982F907F903BE9F0F1
:1034A00040F49039D1F0903AC1F09038B1F080E01A
:1034B0000895903D19F020F4903CC9F782E00895FA
:1034C000903E59F0903F99F7815F8F3080F7E82F59
:1034D000F0E0EE5DFE4F8081089583E00895FC01E9
:1034E000738362830895FC01758F648F0895CF9371
:1034F000DF93EC011DA21FA21EA2BC01685D7F4FDD
:1035000040EC88519F4F0E94821C1B821A821D82B0
:103510001C821F821E82198618861B861A861D86AB
:103520001C861F861E86198A188A1B8A1A8A1D8A7B
:103530001C8A1F8A1E8A198E188E1B8E1A8E1D8E4B
:103540001C8E1F8E1E8E19A218A2DF91CF91089596
:10355000EF92FF920F931F93CF93DF93EA018A01BB
:10356000060F111D88519F4F7C01C017D10739F4F8
:10357000DF91CF911F910F91FF90EF900895699186
:10358000C7010E94891CF1CFFC01718360830895FB
:10359000FC0171A360A30895AF92BF92CF92DF9216
:1035A000EF92FF920F931F93CF93DF9300D00F9270
:1035B000CDB7DEB77C016B01142FB22EA02EDC013B
:1035C00095968C9195978430A9F55A96ED91FC913A
:1035D0003097E9F1CB01019763E070E00E949825F4
:1035E000CB01880F991F860F971F4983BA820B83DF
:1035F0004C2D481B9E012F5F3F4FBC01C701099511
:10360000D7015E96ED91FC91309731F00A2D2B2D6C
:10361000412FB601C70109950F900F900F90DF91D0
:10362000CF911F910F91FF90EF90DF90CF90BF90BF
:10363000AF9008956230710509F455C0633071058B
:1036400099F06130710509F481C0D12CC12CD701EA
:103650005C96ED91FC91309799F20A2D2B2D412F1C
:10366000B601C7010995CCCF842F807F803A11F134
:1036700048F48038D1F0803951F7D7011496ED9194
:10368000FC910AC0803ED9F0803FF1F0803BF9F612
:10369000D7011296ED91FC913097C9F2123FE9F0F3
:1036A0002A2D4B2D612F6F701BC0D7011696ED91FF
:1036B000FC91F2CFD7011896ED91FC91EDCFD70197
:1036C0001A96ED91FC91E8CF423F09F6D7011C967E
:1036D000ED91FC91309709F4BACF2A2D4B2D62EF72
:1036E000C70109958DCF842F807F803DB1F0803F49
:1036F000C9F0803C09F0ABCFD7011E96ED91FC914B
:10370000309709F4A4CF812F8D7F4B2D612F6F70DF
:10371000813F89F0C701099573CFD7015096ED918C
:10372000FC91EECF433F51F4D7015296ED91FC91BD
:10373000309709F48CCF4B2D612FECCF413F09F02E
:1037400086CFD7015496ED91FC91F2CF842F0E9441
:10375000461A882359F0D7015696ED91FC9130977F
:1037600009F475CF612FC70109954ACF163F09F0BB
:103770006ECFD7015896ED91FC91F1CFFF920F9348
:103780001F93CF93DF93EC01162F862F0E94461ACA
:10379000882391F0FDA081E08DA300E020E0412F7F
:1037A00061E070E0CE010E94CC1AFDA2DF91CF91C2
:1037B0001F910F91FF900895812F0E94421A4DA1F1
:1037C000882309F443C0443029F01AA381E090E033
:1037D0009FA38EA3812F0E944C1A813051F0882321
:1037E000A9F0823089F0833079F01DA21FA21EA2B9
:1037F000DDCF8DA300E020E0412F61E070E0CE013D
:103800000E94CC1A1DA2D2CF8DA3D0CF103FB1F011
:10381000173F59F72EA13FA1C90163E070E00E9454
:103820009825FE01E80FF91F12A3B9016F5F7F4FC2
:103830007FA36EA30CA12BA14AA1E1CF84E08DA3AD
:103840001AA381E090E09FA38EA3B0CF442309F494
:10385000ADCF2EA13FA1C90163E070E00E94982581
:10386000FE01E80FF91F12A3B9016F5F7F4F7FA31D
:103870006EA38130910569F0029709F097CF0CA1F2
:103880002BA14AA1CE010E94CC1A8DA18430C9F689
:103890008DCF00E0423009F089CFF2CFCF92DF9296
:1038A000EF92FF920F931F93CF93DF93EC01E8A168
:1038B000F9A1309709F009956E0188EEC80ED11C68
:1038C000C6010E94B81C10E000E0E82EF12C0E1595
:1038D0001F0548F0DF91CF911F910F91FF90EF905E
:1038E000DF90CF90089560E0C6010E94CC1C682F45
:1038F000CE010E94BE1B61E0C6010E94DC1C0F5F6E
:103900001F4FE5CFFC0142837483638311821082D1
:1039100008951F93CF93DF93EC01162F0E94F31CA1
:10392000482F298130E0C90101966A8170E00E9428
:10393000AC2558815817190641F4842F0E94F61CB3
:1039400080E0DF91CF911F9108958B819C81280F9A
:10395000391FF9011083898190E001966A8170E036
:103960000E94AC258983842F0E94F61C81E0E9CF58
:10397000CF93DF93EC010E94F31C99812881921769
:1039800040F0C92FC21B0E94F61C8C2FDF91CF91F3
:103990000895CA819C0FF5CFFC018081860F99277D
:1039A000991F628170E00E94AC2523813481280F29
:1039B000391FF901808108951F93CF93DF93EC01A4
:1039C000162F0E94F31C282F8881810F9927991F99
:1039D0006A8170E00E94AC258883822FDF91CF91AD
:1039E0001F910C94F61C8FB7F89408958FBF08951B
:1039F000089508950F931F93CF93DF9300D000D0C5
:103A000000D00F92CDB7DEB78C01CE0101960E9497
:103A1000D31F81110BC027960FB6F894DEBF0FBEDF
:103A2000CDBFDF91CF911F910F9108958A810E94A0
:103A30004C1A9A819D839B819E839C819F838111D7
:103A40000AC08981843079F0873069F0863069F066
:103A50008530D9F681E0AE014B5F5F4F682FC8011A
:103A60000E94A81AD2CF83E0F6CF82E0F4CFDF9293
:103A7000EF92FF920F931F93CF93DF9300D000D06C
:103A8000CDB7DEB77B01142FD22E4A832B830C8354
:103A9000842F0E944C1A811129C082E0E816F1049B
:103AA00001F183E0E816F10439F0EA94EF2869F4B3
:103AB00085E0173F21F404C087E0073F09F084E068
:103AC0008983CE0101960E94CE1F0F900F900F9018
:103AD0000F90DF91CF911F910F91FF90EF90DF90AA
:103AE000089587EFD812EBCF86E0EACF12951F70CA
:103AF0001983E7CF89EB91E00E94771A67E37DE1B4
:103B000089EB91E00E94C41A6AEF7CE189EB91E0B5
:103B10000E94C81A68EF7CE189EB91E00E94731A59
:103B200069EF7CE189EB91E00C946F1A9B01409165
:103B3000AA024430C1F4FC0191819F709093E90086
:103B400050E040E064E070E0C9010E94AD208111C6
:103B50000BC09091E80095FD07C09091E8009E771A
:103B60009093E800089582E008952091AA022430FD
:103B700091F4FC0181818F708093E9009091F300B2
:103B80008091F200892B49F08091E8008E77809334
:103B9000E8000C945B2282E0089580E00895FC0127
:103BA0008091AA02843059F491819F709093E9002A
:103BB0008091E80080FF03C0CF010C94B51D0895EB
:103BC0009B014091AA02443011F080E00895FC016D
:103BD00096819F709093E9008091E80082FFF5CF75
:103BE0008091E80085FFF1CF50E040E064E070E0B4
:103BF000C9010E94FC208091E80085FD05C08091EC
:103C0000E8008B778093E80081E008958091AB0114
:103C10000895089508959FB7F8941092A2019FBF48
:103C20009091AA02943009F048C02091E9002F70C9
:103C30003091EC00932F917030FD90E8922B22E0B0
:103C40002093E9002091EB0020FF34C02091EE008A
:103C500027FF30C02091A001222321F02091E8000D
:103C600025FF28C01092A00126E03091E80035FF22
:103C700014C08093F1008091E80085FD27C08091F9
:103C8000E80080FFFCCF8091E8008E778093E80009
:103C90009F709093E90080E008953091AA0234303B
:103CA00049F43091EB0035FD05C0215041F481E02D
:103CB0008093A0019F709093E9008FEF0895EFE942
:103CC000FFE03197F1F700C00000CFCF8FB7F89435
:103CD00021E02093A2018FBFDBCFCF93DF93EC01D4
:103CE00081E08093E9008FEF9091E800815095FD8D
:103CF00006C095ED9A95F1F700008111F5CF8091FE
:103D0000E80085FF14C050E040E068E070E0CE01BC
:103D10000E94AD208091E8008E778093E80088E0D3
:103D2000FE01A3EAB1E001900D928A95E1F7DF91DF
:103D3000CF910895089583E796E00E943904809119
:103D4000A902811109C00E948C220E94E92280915F
:103D5000E20084608093E20008958FE696E00E947E
:103D600039041092A90208958BE696E00C94390468
:103D700087E696E00C94390483E696E00E943904C5
:103D80000C94C7162091A1012F5F822F62E30E943D
:103D90008C25992319F02093A10108951092A10177
:103DA0008091A2018823F1F08091AA028430C1F4AD
:103DB0009091E9009F702091EC00822F817020FD8E
:103DC00080E8892B92E09093E9009091EB0090FFBE
:103DD00004C09091EE0097FD08C08F708093E900B9
:103DE0001092A20108951092F1009091E80095FDC3
:103DF000FACF9091E80090FFF0CF9091E8009E7785
:103E00009093E800EACF42E061EC81E00E94082252
:103E100042E261EC82E00E94082242E361E883E032
:103E20000E94082242E361E884E00C940822809119
:103E3000AC02833009F45FC030F48130C1F18230CC
:103E400009F49BC008958A3009F487C08B3009F4C7
:103E50006DC0893009F04EC08091AB02813209F00B
:103E600049C08091AF029091B002892B09F042C005
:103E70008091E800877F8093E8008091E80082FFCE
:103E800035C09091F3008091F200029729F480915F
:103E9000F1008B7F813021F48091F1008093AB01A0
:103EA0008091E8008B778093E8000C943C2280910D
:103EB000AB02813AF9F48091E800877F8093E800B3
:103EC0008091AF029091B002892B61F468E083EA9F
:103ED00091E070E00E944B218091E8008B77809305
:103EE000E800089560E090E080E0F3CF8091AA02BE
:103EF0008111C3CF08958091AB02813AD9F78091A7
:103F0000AF029091B002892BA9F78091E800877FDA
:103F10008093E8008091E80080FFFCCF8091180139
:103F20008093F1008091E8008E77BDCF8091AB0245
:103F3000813201F78091AF029091B002892BD1F6C6
:103F40008091E800877F8093E8000E943C22809166
:103F5000AD02809318010C94350F8091AB02813231
:103F600049F68091E800877F8093E8000E943C2218
:103F70008091AE028093AC0108958091AB02813AAA
:103F800009F0B8CF8091E800877F8093E8008091A6
:103F9000E80080FFFCCF8091AC01C2CFBC0182E081
:103FA00091E00C94961DBC0182E091E00C94E01D20
:103FB0000E947A1D84B7877F84BF0FB6F894A895B6
:103FC00080916000886180936000109260000FBE55
:103FD00080E890E00FB6F8948093610090936100C0
:103FE0000FBE0E94790B0E948C220E94E9228091D0
:103FF000E20084608093E2008BE09EE10E946715FE
:1040000078940E9471250E94830B8EE091E00E94BB
:10401000E20A82E596E00E9439048091AA02853086
:1040200039F00E94B30B82E091E00E94CF1DF5CFE2
:104030008EE496E00E9439040E947F168091A802C7
:10404000882359F30E94B016882339F30E949720E1
:10405000E4CF0C942B20E92FFF27E330F105F1F09A
:1040600060F4E130F10509F453C0329709F455C00A
:10407000F0E0E0E090E080E029C0E132F10509F4F1
:1040800038C0E232F105A1F76115710509F44AC0A3
:1040900085E697E061307105C9F0EACF9927813054
:1040A0009105C9F0009761F082309105D9F003972E
:1040B000F9F6E7E7F6E0E491F0E087E796E006C07E
:1040C000E9EAF6E0E491F0E089EA96E0DA018D931E
:1040D0009C93CF010895E9E8F6E0E491F0E089E8E7
:1040E00096E0F4CFEDE7F6E0E491F0E08DE796E0BE
:1040F000EDCFE9E0F0E08FEB96E06115710531F36B
:10410000E9E0F0E088ED96E061307105F9F2B0CFBA
:10411000E2E1F0E083E597E0D9CFE6EAF0E08DEA6E
:1041200096E0D4CFE0E4F0E087E897E0CFCF80E1FD
:1041300089BD82E189BD09B400FEFDCF8091D80020
:104140008F7D8093D8008091E00082608093E000B2
:104150008091E00081FDFCCF0895AF92BF92CF9295
:10416000DF92FF920F931F93CF93DF936C01EB01CC
:104170008A010E945B22F82E811123C001151105CE
:1041800039F0F80180819181C81BD90BC80ED91E66
:10419000B12CA12C2097A9F08091E80085FD22C0C8
:1041A0008091E8008E778093E80001151105A1F059
:1041B000F80180819181A80EB91EB182A08285E0AC
:1041C000F82E8F2DDF91CF911F910F91FF90DF90EF
:1041D000CF90BF90AF9008950E945B228823D1F2C8
:1041E000F82EEFCFF60181916F018093F1002197B6
:1041F000FFEFAF1ABF0ACECFAF92BF92CF92DF923E
:10420000FF920F931F93CF93DF936C01EB018A0111
:104210000E945B22F82E811123C00115110539F08F
:10422000F80180819181C81BD90BC80ED91EB12C11
:10423000A12C2097A9F08091E80085FD22C08091F3
:10424000E8008B778093E80001151105A1F0F801D3
:1042500080819181A80EB91EB182A08285E0F82EDE
:104260008F2DDF91CF911F910F91FF90DF90CF9015
:10427000BF90AF9008950E945B228823D1F2F82E60
:10428000EFCF8091F100F60181936F012197FFEF4D
:10429000AF1ABF0ACECFFC018091B1029091B20259
:1042A00086179707A0F06115710529F49091E80031
:1042B0009E779093E80090E06115710551F491119B
:1042C00008C08091E80082FF34C080E00895BC01FE
:1042D000F2CF8091AA028823C1F18530C1F180918B
:1042E000E80083FD30C08091E80082FDEACF809134
:1042F000E80080FFE1CF8091F3002091F200382F99
:104300006115710519F02830310558F091E0283019
:10431000310509F090E02091E8002E772093E80025
:10432000CBCF81918093F100615071092F5F3F4F96
:10433000E7CF8091AA02882341F0853041F0809137
:10434000E80083FFBECF81E0089582E0089583E016
:104350000895FC018091B1029091B20286179707EF
:10436000A0F06115710529F48091E8008E778093A3
:10437000E80090E06115710551F4911108C0809139
:10438000E80082FF35C080E00895BC01F2CF809143
:10439000AA028823C9F18530C9F18091E80083FD24
:1043A00031C08091E80082FDEACF8091E80080FF73
:1043B000E1CF8091F3002091F200382F6115710553
:1043C00019F02830310558F091E02830310509F016
:1043D00090E08091E8008E778093E800CBCF8491C5
:1043E0008093F1003196615071092F5F3F4FE6CF06
:1043F0008091AA02882341F0853041F08091E80045
:1044000083FFBDCF81E0089582E0089583E00895A1
:10441000982F973028F08F708093E90081E00895FD
:104420009093E900242F762F50E0981731F0709187
:10443000EC002091ED005091F00021FD02C09F5F43
:10444000E8CF3091EB003E7F3093EB003091ED00F0
:104450003D7F3093ED003091EB0031603093EB0005
:104460007093EC002093ED005093F0002091EE004B
:1044700027FDE5CF80E008958091AB0287FF13C050
:104480008091E80082FF06C08091E8008B778093DE
:10449000E80004C08091AA028111F2CF08958091B2
:1044A000AA028823D9F38091E80080FFF8CF809199
:1044B000E8008E77ECCF2091E4003091E50095E69E
:1044C000A9012091EC00822F817020FF06C080910D
:1044D000E80080FF06C080E008952091E80022FDFA
:1044E0001AC08091AA02882389F0853089F08091D2
:1044F000EB0085FD0FC02091E4003091E5004217EC
:104500005307F9F29150E1F684E0089582E00895AE
:1045100083E0089581E008950E94FA220E94022318
:10452000E0EEF0E0808181608083E8EDF0E0808162
:104530008F77808319BCA7EDB0E08C918E7F8C9330
:1045400080818F7E80831092A90208950F931F931C
:10455000CF93DF930E94FA220E940223C8EDD0E09D
:1045600088818F77888388818068888388818F7D20
:10457000888319BC1092AA021092A6021092A80277
:104580001092A70200EE10E0F80180818B7F8083FB
:1045900088818160888342E060E080E00E94082298
:1045A000E1EEF0E080818E7F8083E2EEF0E08081BA
:1045B00081608083808188608083F80180818E7F24
:1045C0008083888180618883DF91CF911F910F91D3
:1045D0000895E8EDF0E080818F7E8083E7EDF0E0E4
:1045E00080818160808384E082BF81E08093A90222
:1045F0000C94A622E8EDF0E080818E7F80831092FB
:10460000E20008951092DA001092E10008951F92DE
:104610000F920FB60F9211242F933F934F935F93F6
:104620006F937F938F939F93AF93BF93EF93FF937A
:104630008091E10082FF0BC08091E20082FF07C001
:104640008091E1008B7F8093E1000E94C21E8091E7
:10465000DA0080FF19C08091D80080FF15C08091DA
:10466000DA008E7F8093DA008091D90080FF96C0B7
:1046700080E189BD82E189BD09B400FEFDCF81E002
:104680008093AA020E949B1E8091E10080FF19C0C6
:104690008091E20080FF15C08091E2008E7F8093C0
:1046A000E2008091E20080618093E2008091D80076
:1046B00080628093D80019BC85E08093AA020E9492
:1046C000B81E8091E10084FF2BC08091E20084FF3E
:1046D00027C080E189BD82E189BD89B5982F91709D
:1046E00080FFFBCF8091D8008F7D8093D800809190
:1046F000E1008F7E8093E1008091E2008F7E8093C5
:10470000E2008091E20081608093E2008091A60245
:10471000882309F449C084E08093AA020E94BC1E49
:104720008091E10083FF29C08091E20083FF25C0D2
:104730008091E100877F8093E10082E08093AA026C
:104740001092A6028091E1008E7F8093E10080911B
:10475000E2008E7F8093E2008091E200806180938E
:10476000E20042E060E080E00E9408228091F000D8
:1047700088608093F0000E94B41EFF91EF91BF917A
:10478000AF919F918F917F916F915F914F913F91E9
:104790002F910F900FBE0F901F90189519BC10927B
:1047A000AA020E94AD1E70CF8091E30087FD93E0C6
:1047B0009093AA02B3CF1F920F920FB60F921124BB
:1047C0002F933F934F935F936F937F938F939F9319
:1047D000AF93BF93CF93DF93EF93FF93D091E90013
:1047E000DF708091EC00C82FC17080FDC0E810928E
:1047F000E9008091F000877F8093F00078940E9418
:104800001F241092E9008091F00088608093F000EE
:10481000CD2BCF70C093E900FF91EF91DF91CF9145
:10482000BF91AF919F918F917F916F915F914F91C8
:104830003F912F910F900FBE0F901F9018951F93CF
:10484000CF93DF93CDB7DEB7AA970FB6F894DEBF4C
:104850000FBECDBF8BEA92E02091F100FC012193C5
:10486000CF01F2E0833B9F07B9F70E94171F8091A9
:10487000E80083FF1EC18091AB029091AC029A3098
:1048800008F017C1E92FF0E0E85DF94D0C94C02560
:10489000803899F0823809F00CC18091AF028F7096
:1048A000873008F006C18093E9008091EB0085FB1A
:1048B000882780F91092E90006C08091A7029091A4
:1048C000A802911182609091E800977F9093E80090
:1048D0008093F1001092F1008091E8008E77E5C09E
:1048E000882309F4D3C0823009F0E3C08091AD027F
:1048F0008111D6C08091AF028F702FEF280F263024
:1049000008F0D7C08093E9002091EB0020FFC8C0D9
:10491000933031F48091EB0080628093EB00C0C053
:104920009091EB0090619093EB0021E030E001C0AA
:10493000220F8A95EAF72093EA001092EA0080910C
:10494000EB008860EACF8111B4C01091AD021F77EF
:104950008091E3008078812B8093E3008091E800D0
:10496000877F8093E8000E943C228091E80080FFCE
:10497000FCCF8091E30080688093E30082E0111116
:1049800083E08093AA0295C08058823008F091C0DD
:104990008091AD029091AE028C3D23E09207A1F58B
:1049A00083E08A838AE289834FB7F894DE01139605
:1049B00020E03EE051E2E32FF0E050935700E49115
:1049C00020FF03C0E295EF703F5FEF708E2F90E005
:1049D000EA30C0F0C7968D939D932F5F243159F72D
:1049E0004FBF8091E800877F8093E8006AE270E023
:1049F000CE0101960E944B218091E8008B77809335
:104A0000E80057C0C096E7CF6091AF027091B00246
:104A1000AE014F5F5F4F0E942920BC01892B09F432
:104A200048C09091E800977F9093E80089819A812F
:104A30000E94A921E1CF8038E1F58091E800877FCD
:104A40008093E8008091A6028093F10045CF811108
:104A500030C09091AD02923060F58091E800877F80
:104A60008093E8009093A6020E943C228091A602C7
:104A7000882311F084E005C08091E30087FDFACF20
:104A800081E08093AA020E94031F13C08091AD02AF
:104A9000813079F481E0933009F080E08093A802BE
:104AA0001092E9008091E800877F8093E8000E94DF
:104AB0003C228091E80083FF0AC08091E800877F54
:104AC0008093E8008091EB0080628093EB00AA96CF
:104AD0000FB6F894DEBF0FBECDBFDF91CF911F910F
:104AE0000895CF938091AA028823A1F0C091E90094
:104AF000CF709091EC00892F817090FD80E8C82BD9
:104B00001092E9008091E80083FD0E941F24CF707D
:104B1000C093E900CF910895991B79E004C0991FD3
:104B2000961708F0961B881F7A95C9F78095089507
:104B3000AA1BBB1B51E107C0AA1FBB1FA617B707C3
:104B400010F0A61BB70B881F991F5A95A9F78095DF
:104B50009095BC01CD01089597FB072E16F40094A3
:104B600007D077FD09D00E94982507FC05D03EF4B8
:104B7000909581959F4F0895709561957F4F089509
:104B8000EE0FFF1F0590F491E02D0994F999FECFE7
:104B900092BD81BDF89A992780B50895A8E1B0E04B
:104BA00042E050E00C94FA25262FF999FECF92BDF1
:104BB00081BDF89A019700B4021639F01FBA20BDE2
:104BC0000FB6F894FA9AF99A0FBE08950396272F14
:104BD0000E94D5250E94D425252F0E94D525242F5B
:104BE0000C94D5250196272F0E94D5250C94D42509
:104BF000DC01CB01FC01F999FECF06C0F2BDE1BD9D
:104C0000F89A319600B40D9241505040B8F708958B
:104C1000F894FFCF310D310D890D890D5E0D5E0DBC
:104C20005E0D5E0DDB0D670E760E760ED20E5E0DFE
:104C30005E0DDB0E440F440F4D0F4D0F4F0F4D0F08
:104C40004D0F4D0F440F440F540F4D0F4D0F540F88
:104C500048247024592570245925A324C424592597
:044C60001B252725C4
:104C64009201038340000001044000000100061E7D
:104C74006D1E091E0A1E9A1E019190946697C634F1
:104C840035000203020000010001010101010001DD
:024C940001001D
:00000001FF
